:100000000C945D000C9485000C9485000C94850084
:100010000C9485000C9485000C9485000C9485004C
:100020000C9485000C9485000C9485000C9485003C
:100030000C9485000C9485000C9485000C9485002C
:100040000C94DD020C9485000C9485000C948500C2
:100050000C9485000C9485000C9485000C9485000C
:100060000C9485000C94850000000008000201003B
:100070000003040700000000000000000000000072
:10008000250028002B0000000000240027002A0083
:10009000040404040404040402020202020203032E
:1000A0000303030301020408102040800102040836
:1000B0001020010204081020190411241FBECFEFE4
:1000C000D8E0DEBFCDBF11E0A0E0B1E0ECE2F9E0A6
:1000D00002C005900D92A632B107D9F721E0A6E241
:1000E000B1E001C01D92A734B207E1F710E0CDE501
:1000F000D0E004C02197FE010E948E04CC35D107C8
:10010000C9F70E9427030C9494040C94000090E01B
:10011000FC01EC55FF4F249180579F4FFC018491C7
:10012000882399F090E0880F991FFC01EA57FF4F50
:10013000A591B491FC01E458FF4F859194918FB73C
:10014000F894EC91E22BEC938FBF0895AF92BF929D
:10015000CF92DF92EF92FF920F931F93CF93DF9393
:100160006C017B018B01040F151FEB015E01AE18C2
:10017000BF08C017D10759F06991D601ED91FC91E4
:100180000190F081E02DC6010995892B79F7C50111
:10019000DF91CF911F910F91FF90EF90DF90CF9063
:1001A000BF90AF90089590E0FC01E859FF4F249173
:1001B000FC01EC55FF4F3491FC01E057FF4FE491F7
:1001C000EE23C9F0222339F0233001F1A8F42130C5
:1001D00019F1223029F1F0E0EE0FFF1FE458FF4F34
:1001E000A591B4918FB7F894EC91611126C0309528
:1001F0003E233C938FBF08952730A9F02830C9F0E3
:10020000243049F7809180008F7D03C08091800069
:100210008F7780938000DFCF84B58F7784BDDBCF6D
:1002200084B58F7DFBCF8091B0008F778093B00035
:10023000D2CF8091B0008F7DF9CF3E2BDACF3FB780
:10024000F89480912B0190912C01A0912D01B091F7
:100250002E0126B5A89B05C02F3F19F00196A11DC0
:10026000B11D3FBFBA2FA92F982F8827BC01CD0100
:10027000620F711D811D911D42E0660F771F881F5F
:10028000991F4A95D1F708958F929F92AF92BF928E
:10029000CF92DF92EF92FF924B015C010E941F010F
:1002A0006B017C010E941F016C197D098E099F0959
:1002B000683E734081059105A8F321E0821A9108F8
:1002C000A108B10888EEC80E83E0D81EE11CF11C1D
:1002D00081149104A104B10429F7FF90EF90DF90FD
:1002E000CF90BF90AF909F908F900895089590E029
:1002F00080E00895FC0101900020E9F73197AF01FB
:10030000481B590BBC018FE291E00C94A600CF93DF
:10031000DF93EC0160E08E810E94D30061E08E816A
:100320000E94D30060E08E810E94D3008BE891E0B0
:100330000197F1F7DF91CF910895CF92DF92EF927D
:10034000FF920F931F93CF93DF936C017C0187E0A3
:10035000E80EF11CD0E0C0E0062F10E0B8010C2E32
:1003600002C0759567950A94E2F76170F701819173
:100370007F010E94D3002196C430D10579F7C601D0
:10038000DF91CF911F910F91FF90EF90DF90CF9071
:100390000C948701CF92DF92EF92FF920F931F93FD
:1003A000CF93DF93EC01F62E642F8C810E94D30053
:1003B0008D818F3F19F060E00E94D3000F2D10E077
:1003C0008F8584FF25C06E0187E0C80ED11CF12CFB
:1003D000E12CB8010E2C02C0759567950A94E2F7DE
:1003E0006170F60181916F010E94D300FFEFEF1A57
:1003F000FF0A88E0E816F10461F7CE01DF91CF91A2
:100400001F910F91FF90EF90DF90CF900C94870198
:10041000B80184E0759567958A95E1F7CE010E9451
:100420009D016F2DCE01DF91CF911F910F91FF9014
:10043000EF90DF90CF900C949D0140E0682F8FE209
:1004400091E00C94CA0181E00E941D028BE39FE1C0
:100450000197F1F70895CF93DF93823029F49091BB
:100460003E01986090933E018093420110924301B7
:1004700080E48093440180E18093450180E580938E
:100480004601809133010E948700809134018F3FA3
:1004900011F00E948700809135010E948700CFE211
:1004A000D1E09E012F52314080913E0184FD0AC06F
:1004B00084E090E02196281739073CF48E810E9451
:1004C0008700EFCF88E090E0F5CF8BE39DE00197C8
:1004D000F1F760E0809133010E94D30060E08091E9
:1004E00035010E94D300809134018F3F19F060E004
:1004F0000E94D30080913E0184FD34C063E08FE20E
:1005000091E00E949D01CBE4D6E4CE010197F1F782
:1005100063E08FE291E00E949D012197F1F763E093
:100520008FE291E00E949D0183E592E00197F1F74F
:1005300062E08FE291E00E949D0180913E01806225
:100540000E941D0284E080933F018CE00E941D0206
:100550000E94230282E08093400186E0DF91CF91E8
:100560000C941D0280620E941D028BE496E40197A8
:10057000F1F780913E0180620E941D0283E592E0C6
:100580000197F1F780913E0180620E941D02D5CF54
:1005900090914201691710F06FEF690FE62FF0E0BC
:1005A000E15DFE4F9489890F80680C941D0241E043
:1005B0000E94CA0181E090E008951F920F920FB649
:1005C0000F9211242F933F938F939F93AF93BF93D9
:1005D0008091270190912801A0912901B0912A01D1
:1005E0003091260123E0230F2D3758F50196A11DE8
:1005F000B11D209326018093270190932801A09399
:100600002901B0932A0180912B0190912C01A09196
:100610002D01B0912E010196A11DB11D80932B01DA
:1006200090932C01A0932D01B0932E01BF91AF9117
:100630009F918F913F912F910F900FBE0F901F9020
:10064000189526E8230F0296A11DB11DD2CFCF9396
:10065000DF93CDB7DEB7A1970FB6F894DEBF0FBE1C
:10066000CDBF789484B5826084BD84B5816084BD3B
:1006700085B5826085BD85B5816085BD80916E0040
:10068000816080936E001092810080918100826071
:1006900080938100809181008160809381008091AE
:1006A00080008160809380008091B100846080939D
:1006B000B1008091B00081608093B00080917A0099
:1006C000846080937A0080917A00826080937A00BF
:1006D00080917A00816080937A0080917A008068AE
:1006E00080937A001092C10082E00E942B0260E0A9
:1006F00085E00E94C8028CE091E00E947A0161E0EE
:1007000083E00E94C80282E191E00E947A0168EED3
:1007100073E080E090E00E9444010E94230280E4A4
:10072000382E9DEC492E512C612C712C2AE0C22EC2
:10073000D12CE12CF12C30927C0080917A008064E5
:1007400080937A0080917A0086FDFCCF80917800BA
:10075000A0917900BA2FA82F24E630E00E948704E8
:10076000A30192010E94370449015A0160E084E02C
:100770000E94C8028BE191E00E947A0161E087E06B
:100780000E94C802B7FE3FC041E06DE28FE291E0F7
:100790000E94CA0122273327A901281939094A09C9
:1007A0005B0919A28E010F5D1F4FCA01B901A70194
:1007B00096010E945604605DF80162938F01211535
:1007C00031054105510589F70115110561F00190C9
:1007D0000020E9F73197AF01401B510BB8018FE2C0
:1007E00091E00E94A60064EF71E080E090E00E943A
:1007F00044010E94230280E090E0892B09F49BCF02
:100800000E94000098CFA501940119A28E010F5DEE
:100810001F4FCA01B901A70196010E945604605DED
:10082000F80162938F01211531054105510589F7C2
:10083000CBCFEFE2F1E01382128284E091E091836A
:10084000808387E084838FEF858386E0868385E0DD
:10085000878384E0808783E0818782E082871386B4
:10086000148615861686178681E00C942B02052EB9
:1008700097FB1EF400940E944E0457FD07D00E947F
:10088000560407FC03D04EF40C944E04509540954A
:10089000309521953F4F4F4F5F4F0895909580952C
:1008A000709561957F4F8F4F9F4F0895A1E21A2E4B
:1008B000AA1BBB1BFD010DC0AA1FBB1FEE1FFF1F04
:1008C000A217B307E407F50720F0A21BB30BE40B54
:1008D000F50B661F771F881F991F1A9469F760959B
:1008E0007095809590959B01AC01BD01CF01089555
:1008F000A29FB001B39FC001A39F700D811D112461
:10090000911DB29F700D811D1124911D08950E94AB
:100910007804B7FF0895821B930B0895EE0FFF1F15
:0C0920000590F491E02D0994F894FFCFAD
:10092C0000000000D702A60077017601464F524323
:10093C0045004445544543544F5200464F5243459D
:06094C002028252900000F
:00000001FF
